:020000040000FA
:060000000A128A110C280F
:10000800FE00030EFC000A08FD000A128A11322ABB
:100018000A128A110F280A128A11F0220A128A116A
:10002800C8000A128A11F1220A128A11C900831320
:100038002030840036300A128A11DB220A128A1113
:1000480083010A128A11CE2983120313BE003E08C7
:1000580003192F2830284428B91F33283428442866
:100068003609C0003709C1003809C2003909C30080
:10007800C00A0319C10A0319C20A0319C30A4C2882
:100088003908C3003808C2003708C1003608C00064
:100098003908380437043604031D532854285D28CA
:1000A8000030B9000030B8000030B7000030B600AA
:1000B800E3289630BA003A08BF006F280130BA002A
:1000C8003A08BF0701300310C30CC20CC10CC00CA6
:1000D800FF3E031D6728FE304305031D742875285D
:1000E800622891280130BA003A08BF070130C007DA
:1000F800003003180130C107003003180130C2076F
:10010800003003180130C30701300310C30CC20CC0
:10011800C10CC00CFF3E031D8928FF304305031D99
:10012800962897287628A3280130BF020130BA0004
:100138000310C00DC10DC20DC30DBA0B9C28C21B04
:10014800A628A728AD2802303F020318AC28AD28FE
:1001580098283F18B028B128B928FF30C005FF30CB
:10016800C1057F30C205FF30C3050310BF0C3F082F
:10017800BA00BB01BC01BD0118300310BA0DBB0D9C
:10018800BC0DBD0DFF3E031DC1283A08C0043B0845
:10019800C1043C08C2043D08C3043E080319D5281D
:1001A800D628DB28B91FD928DA28DB28C317430843
:1001B800B9004208B8004108B7004008B600080076
:1001C8000310720D730DF4007408FA007A08031D09
:1001D800EE28EF28F8280030F3000030F200003055
:1001E800F1000030F0005D297008F4007108F50096
:1001F8007208F6007308F7001F300310F70CF60CAE
:10020800F50CF40CFF3E031D01297408F80078086A
:10021800F900F217FF30F005FF30F105FF30F20565
:100228000030F3059630FA02FA1F1B291C293629DB
:100238007A08803A973E0318222923292429EF288F
:1002480001300310F30CF20CF10CF00CFF3E031D0F
:1002580025290130F4007408FA07031D34293529CB
:1002680024294D2920307A02031C3B293C2948299E
:10027800EF280130F4000310F00DF10DF20DF30D2D
:10028800F40B3F290130FA027A08031D4C294D2945
:100298003D2979080319512952295D29F009F109E5
:1002A800F209F309F00A0319F10A0319F20A03190A
:1002B800F30A080083120313B9000B1783160313FC
:1002C8000C17831203130C13831603139F139F1227
:1002D8001F12831203131F147D299F131F13B329A1
:1002E8009F131F17B3299F171F13B3299F171F1792
:1002F800B3293908B700B8013808003A0319852925
:10030800B3293708003A03197129013A03197429E6
:10031800033A03197729013A03197A29B3291F11D6
:100328009F111F129F12831603170814C9291F153E
:100338009F111F129F12831603178814C9291F11B2
:100348009F151F129F12831603170815C9291F1519
:100358009F151F129F12831603178815C92936087F
:10036800B700B8013808003A0319BB29C92937086A
:10037800003A03199329013A03199B29033A0319EF
:10038800A329013A0319AB29C929831203139F141E
:100398008B1708000A128A1185220A128A11831201
:1003A80003133503031DD929DA29D3293008310469
:1003B800031DDF29E029062A0130B0000030B10012
:1003C8001F08C33904389F001E08C400C501C601B0
:1003D800C7014708B9004608B8004508B7004408EF
:1003E800B60000300A128A1128200A128A118312D4
:1003F80003133908AF003808AE003708AD003608D7
:10040800AC002D2A30033104031D0B2A0C2A2D2A97
:10041800B001B101C3309F051E08C400C501C60163
:10042800C7014708B9004608B8004508B70044089E
:10043800B60000300A128A1128200A128A11831283
:1004480003133908AB003808AA003708A900360892
:10045800A8009F14D3290A128A110C2883120313A7
:100468008C1D372A382A772A0A128A11D2220A12B0
:100478008A11FB007B0883120313B4003403031DA5
:10048800462A472A5B2A2F08F3002E08F2002D0877
:10049800F1002C08F0000A128A11E4200A128A11CD
:1004A80070080A128A11EA220A128A11742A023082
:1004B8003406031D602A612A742A2B08F3002A08CF
:1004C800F2002908F1002808F0000A128A11E42035
:1004D8000A128A1170080A128A11EA220A128A116B
:1004E800831203138C119F187A2A7B2A7E2AB5015E
:1004F800B50A0C137D088A007C0E8300FE0E7E0E62
:100508000900033083160317880089018316031333
:100518008601880183120313860188018B170B1744
:100528008C11831603138C158516871207168312F0
:100538000313B601B701B80124300A128A11B42294
:100548000A128A1183120313B60101300A128A11A2
:100558005E210A128A1183160313051485140800F4
:1005680083120313B900831603138712831203132C
:10057800391DBF2AC02AC62A3808831603139400D7
:100588008715CC2A3608380483160313940087117C
:100598008312031339083704940008000A128A11D9
:1005A800E3220A128A118312031313080800640055
:1005B8008001840A0406031900340406DC2A831621
:1005C8000313141CE82AE92AE32A0800F00070083B
:0C05D800831203139300080001340F3459
:04400E00D4E0FFFFFC
:00000001FF
